:020000040800F2
:10000000C80A0020110B00087D0B00087D0B0008BA
:100010007D0B00087D0B00087D0B00080000000030
:100020000000000000000000000000007D0B000840
:100030007D0B0008000000007D0B00087D0B000810
:100040007D0B00087D0B00087D0B00087D0B000870
:100050007D0B00087D0B00087D0B00087D0B000860
:100060007D0B00087D0B00087D0B00087D0B000850
:100070007D0B00087D0B00087D0B00087D0B000840
:100080007D0B00087D0B00087D0B00087D0B000830
:100090007D0B00087D0B00087D0B0008590D000842
:1000A0007D0B0008C93A00087D0B00087D0B000895
:1000B000A93600087D0B00087D0B00087D0B0008A9
:1000C0007D0B00087D0B00087D0B00087D0B0008F0
:1000D0007D0B00087D0B00087D0B0008E521000862
:1000E0007D0B00087D0B00087D0B00087D0B0008D0
:1000F0004D0C00087D0B00087D0B00087D0B0008EF
:100100007D0B00087D0B00087D0B00087D0B0008AF
:100110007D0B00087D0B00087D0B00087D0B00089F
:100120007D0B00087D0B00087D0B00087D0B00088F
:100130005FF808F180B485B000AF786039604FF0A7
:100140000003FB817B681B88FB817A684FF4305386
:10015000C4F201039A421FD07A684FF45053C4F29C
:1001600001039A4218D07B68B3F1804F14D07A68AB
:100170004FF48063C4F200039A420DD07A684FF4C2
:100180000063C4F200039A4206D07A684FF44063D9
:10019000C4F200039A4208D1FB8923F07003FB816B
:1001A0003B685A88FB891343FB817A684FF480537C
:1001B000C4F200039A420FD07A684FF4A053C4F2FD
:1001C00000039A4208D0FB8923F44073FB813B680B
:1001D000DA88FB891343FB817B68FA891A803B68C4
:1001E0009A887B689A853B681A887B681A857A6842
:1001F0004FF43053C4F201039A421BD07A684FF493
:100200005053C4F201039A4214D07A684FF48043E9
:10021000C4F201039A420DD07A684FF48843C4F2C5
:1002200001039A4206D07A684FF49043C4F2010366
:100230009A4204D13B681B7A1A467B681A867B680F
:100240004FF001029A8207F11407BD4680BC704747
:1002500080B485B000AF786039604FF000037B81D7
:100260004FF00003FB814FF00003BB817B681B8CC8
:100270009BB223F001039AB27B681A847B681B8CC3
:10028000FB817B689B88BB817B681B8B7B817B8927
:1002900023F070037B817B8923F003037B813B6820
:1002A0001A887B8913437B81FB8923F00203FB813E
:1002B0003B681A89FB891343FB813B685A88FB8999
:1002C0001343FB817A684FF43053C4F201039A421E
:1002D0001BD07A684FF45053C4F201039A4214D0F1
:1002E0007A684FF48043C4F201039A420DD07A68D1
:1002F0004FF48843C4F201039A4206D07A684FF45F
:100300009043C4F201039A4223D1FB8923F00803EE
:10031000FB813B685A89FB891343FB81FB8923F0EE
:100320000403FB813B689A88FB891343FB81BB89EB
:1003300023F48073BB81BB8923F40073BB813B68CA
:100340009A89BB891343BB813B68DA89BB89134314
:10035000BB817B68BA899A807B687A891A833B68FB
:10036000DA887B689A867B68FA891A8407F1140711
:10037000BD4680BC704700BF80B485B000AF7860D8
:1003800039604FF000037B814FF00003FB814FF099
:100390000003BB817B681B8C9BB223F010039AB2D5
:1003A0007B681A847B681B8CFB817B689B88BB8184
:1003B0007B681B8B7B817B8923F4E0437B817B897A
:1003C00023F440737B813B681B884FEA03239AB276
:1003D0007B8913437B81FB8923F02003FB813B68EE
:1003E0001B894FEA03139AB2FB891343FB813B68D5
:1003F0005B884FEA03139AB2FB891343FB817A6847
:100400004FF43053C4F201039A4206D07A684FF495
:100410005053C4F201039A422FD1FB8923F0800389
:10042000FB813B685B894FEA03139AB2FB89134354
:10043000FB81FB8923F04003FB813B689B884FEAEB
:1004400003139AB2FB891343FB81BB8923F48063B6
:10045000BB81BB8923F40063BB813B689B894FEA66
:1004600083039AB2BB891343BB813B68DB894FEAA4
:1004700083039AB2BB891343BB817B68BA899A8094
:100480007B687A891A833B68DA887B681A877B687D
:10049000FA891A8407F11407BD4680BC704700BF73
:1004A00080B485B000AF786039604FF000037B8185
:1004B0004FF00003FB814FF00003BB817B681B8C76
:1004C0009BB223F480739AB27B681A847B681B8C7E
:1004D000FB817B689B88BB817B689B8B7B817B8955
:1004E00023F070037B817B8923F003037B813B68CE
:1004F0001A887B8913437B81FB8923F40073FB817A
:100500003B681B894FEA03239AB2FB891343FB81A3
:100510003B685B884FEA03239AB2FB891343FB8154
:100520007A684FF43053C4F201039A4206D07A68D5
:100530004FF45053C4F201039A422FD1FB8923F4A4
:100540000063FB813B685B894FEA03239AB2FB8916
:100550001343FB81FB8923F48063FB813B689B8809
:100560004FEA03239AB2FB891343FB81BB8923F42F
:100570008053BB81BB8923F40053BB813B689B89BB
:100580004FEA03139AB2BB891343BB813B68DB89F3
:100590004FEA03139AB2BB891343BB817B68BA89C4
:1005A0009A807B687A899A833B68DA887B689A8725
:1005B0007B68FA891A8407F11407BD4680BC70472E
:1005C00080B485B000AF786039604FF00003BB8124
:1005D0004FF000037B814FF00003FB817B681B8C95
:1005E0009BB223F480539AB27B681A847B681B8C7D
:1005F0007B817B689B88FB817B689B8BBB81BB89F4
:1006000023F4E043BB81BB8923F44073BB813B6887
:100610001B884FEA03239AB2BB891343BB817B89B2
:1006200023F400537B813B681B894FEA03339AB262
:100630007B8913437B813B685B884FEA03339AB223
:100640007B8913437B817A684FF43053C4F20103F2
:100650009A4206D07A684FF45053C4F201039A428A
:100660000BD1FB8923F48043FB813B689B894FEAD4
:1006700083139AB2FB891343FB817B68FA899A80C2
:100680007B68BA899A833B68DA887B68A3F8402044
:100690007B687A891A8407F11407BD4680BC7047CD
:1006A00080B483B000AF78607B684FF6FF729A80A9
:1006B0007B684FF000021A807B684FF00002DA80FE
:1006C0007B684FF000025A807B684FF000021A727C
:1006D00007F10C07BD4680BC704700BF80B483B0F3
:1006E00000AF78607B684FF000021A807B684FF0A3
:1006F00000025A807B684FF000029A807B684FF0BE
:100700000002DA807B684FF000021A817B684FF0AC
:1007100000025A817B684FF000029A817B684FF09B
:100720000002DA8107F10C07BD4680BC704700BFAC
:1007300080B483B000AF78600B46FB70FB78002B71
:1007400008D07B681B889BB243F001039AB27B6898
:100750001A8007E07B681B889BB223F001039AB2E2
:100760007B681A8007F10C07BD4680BC704700BF4C
:1007700080B483B000AF78600B46FB70FB78002B31
:100780000CD07B68B3F844309BB26FEA43436FEA06
:1007900053439AB27B68A3F844200BE07B68B3F81C
:1007A00044309BB24FEA43434FEA53439AB27B68CB
:1007B000A3F8442007F10C07BD4680BC704700BF7A
:1007C00080B483B000AF786013460A467A807B70AD
:1007D0007B78002B08D07B689B899AB27B88134377
:1007E0009AB27B689A810AE07B689B899AB27B887F
:1007F0006FEA03039BB213409AB27B689A8107F1B8
:100800000C07BD4680BC704780B483B000AF7860F1
:100810000B46FB70FB78002B08D07B681B889BB2D3
:1008200043F080039AB27B681A8007E07B681B88DC
:100830009BB223F080039AB27B681A8007F10C0701
:10084000BD4680BC704700BF80B485B000AF786003
:100850000B467B804FF00003FB817B689B8BFB8109
:10086000FB8923F40063FB817B884FEA03239AB260
:10087000FB891343FB817B68FA899A8307F114078C
:10088000BD4680BC704700BF80B483B000AF7860C5
:100890000B467B807B886FEA03039AB27B681A82DF
:1008A00007F10C07BD4680BC704700BF80B500AFA4
:1008B0004FF48053C4F202034FF48052C4F2020298
:1008C000126842F001021A604FF48052C4F2020230
:1008D0004FF48053C4F202035B6819464FF00003E3
:1008E000CFF6FF030B4053604FF48053C4F2020372
:1008F0004FF48052C4F20202126822F0847222F491
:1009000080321A604FF48053C4F202034FF48052D5
:10091000C4F20202126822F480221A604FF480535B
:10092000C4F202034FF48052C4F20202526822F46D
:10093000FE025A604FF48053C4F202034FF41F02C8
:100940009A6000F009F84FF46D43CEF200034FF0C7
:1009500000629A6080BD00BF80B500AF00F002F871
:1009600080BD00BF80B483B000AF4FF000037B6058
:100970004FF000033B604FF48053C4F202034FF486
:100980008052C4F20202126842F480321A604FF4BC
:100990008053C4F202031B6803F400333B607B689E
:1009A00003F101037B603B68002B03D17B68B3F547
:1009B000A06FECD14FF48053C4F202031B6803F420
:1009C0000033002B03D04FF001033B6002E04FF0F7
:1009D00000033B603B68012B40F094804FF40053D0
:1009E000C4F202034FF40052C4F20202126842F051
:1009F00010021A604FF40053C4F202034FF4005285
:100A0000C4F20202126822F003021A604FF400538B
:100A1000C4F202034FF40052C4F20202126842F020
:100A200002021A604FF48053C4F202034FF4805262
:100A3000C4F2020252685A604FF48053C4F20203B7
:100A40004FF48052C4F2020252685A604FF480534D
:100A5000C4F202034FF48052C4F20202526842F41C
:100A600080625A604FF48053C4F202034FF4805204
:100A7000C4F20202526822F47C125A604FF480538E
:100A8000C4F202034FF48052C4F20202526842F4EC
:100A9000E8125A604FF48053C4F202034FF48052BC
:100AA000C4F20202126842F080721A6000BF4FF472
:100AB0008053C4F202031B6803F00073002BF6D0CE
:100AC0004FF48053C4F202034FF48052C4F2020286
:100AD000526822F003025A604FF48053C4F20203BA
:100AE0004FF48052C4F20202526842F002025A608D
:100AF00000BF4FF48053C4F202035B6803F00C03A1
:100B0000082BF6D107F10C07BD4680BC704700BF2B
:100B100080B582B000AF44F2C443C0F600037B60EE
:100B200040F20003C2F200033B600BE07B681A68EE
:100B30003B681A603B6803F104033B607B6803F188
:100B400004037B603A6840F2B003C2F200039A42A9
:100B5000ECD3084808494FF000028842B8BF40F87B
:100B6000042BFADBFFF7A2FE00F072FB07F1080787
:100B7000BD4680BDB0000020C806002080B400AF94
:100B8000FEE700BF80B584B000AF4FF400504FF0D7
:100B9000010100F04DFE07F104031846FFF780FD48
:100BA00040F6D173BB8040F214533B814FF00003F9
:100BB0007B814FF00003FB8007F104034FF450509A
:100BC000C4F201001946FFF7B5FA4FF45050C4F2D1
:100BD00001004FF00101FFF717FE4FF45050C4F22F
:100BE00001004FF00101FFF74FFE4FF45050C4F2E7
:100BF00001004FF001014FF00102FFF7E1FD4FF45A
:100C00005053C4F201034FF000029A844FF4505045
:100C1000C4F201004FF00101FFF78AFD4FF440706C
:100C200002F058FE4FF02C033B704FF001037B7035
:100C30004FF00003BB704FF00103FB703B461846BA
:100C400002F05CFE07F11007BD4680BD80B400AF26
:100C50004FF45053C4F201034FF45052C4F2010256
:100C6000128892B222F0010292B21A8040F2F0038E
:100C7000C2F200031A6844F2C043C0F600031B68C6
:100C80001A4340F2F003C2F200031A604FF45053CB
:100C9000C4F201034FF000029A844FF45053C4F29F
:100CA00001034FF6FE721A82BD4680BC704700BF3A
:100CB00080B584B000AF4FF001004FF0010100F0AB
:100CC000B7FD4FF010004FF0010100F0B1FD4FF003
:100CD0008003BB804FF00403FB714FF00303BB7133
:100CE00007F104034FF48050C4F20100194600F0EC
:100CF0007DF94FF002004FF0070100F04FFA4FF07E
:100D0000800001F007FC4FF000033B734FF00C0331
:100D10007B734FF08003BB604FF00103BB7307F19F
:100D20000803184601F054FB4FF4407002F0D2FD66
:100D30004FF017033B704FF001037B704FF000033F
:100D4000BB704FF00103FB703B46184602F0D6FD26
:100D500007F11007BD4680BD80B400AF4FF450537B
:100D6000C4F201039B8C9BB2002B15D14FF450535E
:100D7000C4F201034FF45052C4F20102128892B23D
:100D800042F0010292B21A8040F2F003C2F2000374
:100D90004FF000021A6024E040F2F003C2F20003B8
:100DA0001A6844F2BC43C0F600031B689A4218DA82
:100DB00040F2F003C2F200031A684FF45053C4F239
:100DC00001039B8C9BB2194640F20853C2F2000308
:100DD00043F8221002F1010240F2F003C2F20003D4
:100DE0001A604FF48063C4F201034FF080025A612D
:100DF000BD4680BC704700BF80B487B000AF78604C
:100E00004FF000037B614FF000033B6135E03A692E
:100E10007B68D21840F20853C2F2000353F8223024
:100E20001A4639697B68CB1803F1FF3140F2085349
:100E3000C2F2000353F82130D31AFB60FB68122B77
:100E400007DDFB68152B04DC7B694FEA63037B61DC
:100E50000FE0FB68242B09DDFB682B2B06DC7B698C
:100E60004FEA630343F080037B6102E04FF0FF33FE
:100E700007E03B6903F101033B613B69072BC6DDDA
:100E80007B69184607F11C07BD4680BC704700BF50
:100E900080B582B000AF4FF000037B604FF00003DD
:100EA0003B6040F2F003C2F200031A6840F22113E3
:100EB0009A4265D140F2FC03C2F200034FF00002F7
:100EC0001A6040F2F003C2F200034FF000021A6011
:100ED00040F20853C2F200031B68DB2B52DD40F2E4
:100EE0000853C2F200031B68B3F5827F4ADC4FF05F
:100EF0000100FFF781FF03467B604FF00900FFF719
:100F00007BFF03463B603B6883F0FF033B607A68EE
:100F10003B689A4238D17B68002B35DB40F2F40302
:100F2000C2F200037A681A604FF01100FFF764FF05
:100F300003467B604FF01900FFF75EFF03463B60FE
:100F40003B6883F0FF033B607A683B689A421DD19F
:100F50007B68002B1ADB40F2F803C2F200037A68C8
:100F60001A6040F2FC03C2F200034FF001021A6063
:100F700040F2B003C2F200034FF001021A6006E033
:100F800000BF04E000BF02E000BF00E000BF07F1C7
:100F90000807BD4680BD00BF80B500AF40F2F80332
:100FA000C2F200031B68432B04D0472B0AD0092B45
:100FB00010D012E040F2D803C2F200034FF07702E3
:100FC0001A600AE040F2D803C2F200034FF0730245
:100FD0001A6002E001F0A8F800BF40F2FC03C2F280
:100FE00000034FF000021A6080BD00BF80B489B0DA
:100FF00000AF786039604FF00003FB614FF00003F1
:101000003B614FF00003BB614FF00003FB604FF00A
:1010100000037B614FF00003BB603B68DB7803F0AB
:101020000F03FB613B68DB7803F01003002B04D057
:101030003B689B78FA691343FB613B681B88DBB212
:10104000002B4ED07B681B687B614FF00003BB61B7
:1010500041E0BB694FF0010202FA03F3FB603B6819
:101060001B881A46FB6813403B613A69FB689A4249
:101070002DD1BB694FEA8303FB60FB684FF00F0281
:1010800002FA03F3BB60BB686FEA03037A6913409B
:101090007B61FB68FA6902FA03F37A6913437B61A7
:1010A0003B68DB78282B07D1BB694FF0010202FABD
:1010B00003F27B685A610AE03B68DB78482B06D173
:1010C000BB694FF0010202FA03F27B681A61BB6947
:1010D00003F10103BB61BB69072BBAD97B687A694D
:1010E0001A603B681B88FF2B53D97B685B687B6168
:1010F0004FF00003BB6146E0BB6903F108034FF00A
:10110000010202FA03F3FB603B681B881A46FB6886
:1011100013403B613A69FB689A4230D1BB694FEAA0
:101120008303FB60FB684FF00F0202FA03F3BB601E
:10113000BB686FEA03037A6913407B61FB68FA6955
:1011400002FA03F37A6913437B613B68DB78282B4F
:1011500008D1BB6903F108034FF0010202FA03F260
:101160007B685A613B68DB78482B08D1BB6903F187
:1011700008034FF0010202FA03F27B681A61BB69AF
:1011800003F10103BB61BB69072BB5D97B687A69A1
:101190005A6007F12407BD4680BC704790B484B004
:1011A00000AF02460B46FA71BB714FF00003FB60C3
:1011B000BB7903F003034FEA83034FF00F0202FAF7
:1011C00003F3FB604FF00003C4F20103BA794FEA66
:1011D0009202D2B210464FF00002C4F20102B97975
:1011E0004FEA9101C9B201F1020152F821201146E2
:1011F000FA686FEA0202114000F1020243F822107D
:101200004FF00003C4F20103BA794FEA9202D2B25E
:1012100010464FF00002C4F20102B9794FEA910181
:10122000C9B201F1020152F821201146FC79BA79C4
:1012300002F003024FEA820204FA02F2114300F1C3
:10124000020243F8221007F11007BD4690BC704718
:1012500080B582B000AF4FF000037B600CE040F23D
:101260009053C2F200037A684FF0000143F8221055
:101270007B6803F101037B607B680D2BEFDD4FF092
:1012800000037B600CE040F2C853C2F200037A68AE
:101290009B184FF000021A707B6803F101037B601A
:1012A0007B68FF2BEFDD02F027FC02F09BFB02F0D6
:1012B000FBF84FF000004FF0640101F069FF4FF0C0
:1012C00000004FF0640102F02BF801F009FE01F07C
:1012D00013FB4FF000037B6011E07B6818464FF072
:1012E000FF3101F0C7FD014640F20813C2F20003CE
:1012F0007A6843F822107B6803F101037B607B6806
:10130000FF2BEADDFFF73EFCFFF7D2FC00F09AF975
:101310004FF000037B6003E07B6803F101037B6017
:101320007A6845F2FF03C0F225239A42F4DD4FF4B8
:101330000063C4F2000340F25002C2F200021268DD
:1013400092B2A3F840204FF000037B6003E07B687B
:1013500003F101037B607A6848F67F53C0F25B03B8
:101360009A42F4DD4FF40063C4F2000340F28802B5
:10137000C2F20002126892B2A3F840204FF00003BC
:101380007B6003E07B6803F101037B607A6848F6C9
:101390007F53C0F25B039A42F4DD4FF40063C4F262
:1013A000000340F28802C2F20002126892B2A3F86F
:1013B00040204FF000004FF0640101F0E9FE4FF0D3
:1013C00000004FF0640101F0ABFF0EE0FFF760FD9D
:1013D00040F2FC03C2F200031B68012B01D1FFF7AE
:1013E000DBFD00F085FF00F0BFFF40F2D803C2F242
:1013F00000031B68772BE9D14FF40063C4F20003AC
:1014000040F25002C2F20002126892B2A3F84020E9
:101410004FF000037B6003E07B6803F101037B6016
:101420007A6844F67F73C0F212039A42F4DD40F208
:101430008403C2F200034FF001021A6040F28003FD
:10144000C2F200031A6840F28C03C2F200031A6071
:1014500040F2DC03C2F200034FF000021A6040F2D7
:10146000E403C2F200034FF000021A604FF430535D
:10147000C4F201034FF000029A84D9E000F030FA80
:1014800000F06AFA40F28403C2F200031A6840F2E4
:10149000B803C2F200031B689A4200F08A8040F24F
:1014A000E403C2F200031A6840F25803C2F20003D8
:1014B0001B6803FB02F24FF43053C4F201039B8C10
:1014C00099B244F6D353C1F26203A3FB01034FEA7E
:1014D00093139BB2D318184602F080FC40F2E80345
:1014E000C2F20003C3E9000140F2E803C2F20003C4
:1014F000D3E90023104619464FF000024FF00003D5
:1015000002F03AFF0346002B20D140F2B803C2F2AA
:1015100000031A6840F28403C2F200031B68D31A66
:10152000184602F05BFC40F2E803C2F20003D3E984
:10153000002302F0E3FD02460B461046194640F236
:10154000C803C2F20003C3E9000109E040F2C80386
:10155000C2F200034FF000004FF00001C3E90001A8
:1015600040F2B803C2F200031B680E2B06DC40F207
:10157000B803C2F200031B68002B0EDA40F2B80376
:10158000C2F200031B68002B13DC40F2B803C2F266
:1015900000031B6813F10E0F0BDB40F2C803C2F20D
:1015A0000003D3E9000140F2C803C2F20003C3E91B
:1015B000000100F0D5FA40F28403C2F200031A6879
:1015C00040F2B803C2F200031B689A4217D040F2FF
:1015D000B803C2F200031A6840F28403C2F20003A7
:1015E0001A604FF43053C4F201034FF000029A84A2
:1015F00040F2E403C2F200034FF000021A6000F070
:10160000F3FAFFF745FC40F2FC03C2F200031B684B
:10161000012B0DD1FFF7C0FC4FF40063C4F20003AF
:1016200040F25002C2F20002126892B2A3F84020C7
:1016300040F2D803C2F200031B68732B7FF41EAF85
:10164000ABE600BF80B588B000AF4FF009004FF0A7
:10165000010100F0EDF84FF40073BB834FF0180365
:10166000FB774FF00203BB7707F11C034FF4406098
:10167000C4F201001946FFF7B9FC4FF004004FF027
:10168000010100F001F93B461846FFF709F843F65F
:101690009823BB804FF047033B804FF00003FB8053
:1016A0004FF000037B803B464FF40060C4F2000023
:1016B0001946FEF73FFD07F10C031846FFF70EF839
:1016C0004FF06003BB814FF00103FB814FF47A734D
:1016D0007B824FF00003BB8207F10C034FF40060E4
:1016E000C4F200001946FEF76BFF4FF40060C4F22D
:1016F00000004FF00801FFF7A7F84FF40060C4F2B4
:1017000000004FF00101FFF77FF84FF40060C4F2D2
:1017100000004FF00101FFF7B7F84FF40060C4F28A
:1017200000004FF01001FFF7AFF84FF40060C4F273
:1017300000004FF001014FF00002FFF741F84FF4B5
:101740000060C4F200004FF010014FF00002FFF7FC
:1017500037F84FF40063C4F200034FF000029A849C
:101760004FF40063C4F200034FF47A72A3F84020F0
:101770004FF40060C4F200004FF00101FEF7F8FFE3
:101780004FF40060C4F200004FF00101FEF7D0FFFB
:1017900007F12007BD4680BD80B485B000AF7860FA
:1017A0004FF00003FB604FF48053C4F202035B6808
:1017B000FB60FB6823F44043FB60FA687B681343DB
:1017C000FB604FF48053C4F20203FA685A6007F1D9
:1017D0001407BD4680BC704780B483B000AF78600A
:1017E0000B46FB70FB78002B0DD04FF48053C4F2F6
:1017F00002034FF48052C4F20202526911467A6821
:101800000A435A610EE04FF48053C4F202034FF4CE
:101810008052C4F20202526911467A686FEA0202EB
:101820000A405A6107F10C07BD4680BC704700BFF3
:1018300080B483B000AF78600B46FB70FB78002B60
:101840000DD04FF48053C4F202034FF48052C4F21F
:101850000202926911467A680A439A610EE04FF4D7
:101860008053C4F202034FF48052C4F20202926920
:1018700011467A686FEA02020A409A6107F10C0782
:10188000BD4680BC704700BF80B483B000AF7860B5
:101890000B46FB70FB78002B0DD04FF48053C4F245
:1018A00002034FF48052C4F20202D26911467A68F0
:1018B0000A43DA610EE04FF48053C4F202034FF49E
:1018C0008052C4F20202D26911467A686FEA0202BB
:1018D0000A40DA6107F10C07BD4680BC704700BFC3
:1018E00080B483B000AF4FF000037B604FF0000383
:1018F0007B6026E040F29003C2F200037A6833F87E
:1019000012309BB21A4640F25403C2F200031B6825
:101910009A4209DC40F29053C2F200037A684FF019
:10192000000143F8221008E040F29053C2F2000395
:101930007A684FF0010143F822107B6803F101033C
:101940007B607B680D2BD5DD07F10C07BD4680BCA5
:10195000704700BF0000000080B582B000AF40F2C9
:10196000B803C2F200034FF000021A6040F2D00345
:10197000C2F200034FF000021A604FF000037B60D8
:1019800030E040F29053C2F200037A6853F822200C
:1019900040F20403C2F20003796853F8213003FBDC
:1019A00002F240F2B803C2F200031B68D21840F200
:1019B000B803C2F200031A6040F29053C2F200036F
:1019C0007A6853F8222040F2D003C2F200031B6869
:1019D000D21840F2D003C2F200031A607B6803F110
:1019E00001037B607B680D2BCBDD40F2D003C2F29C
:1019F00000031B68002B7CD040F2DC03C2F2000322
:101A00001B68B3F1FF3F2AD14FF43053C4F20103F6
:101A10004FF000029A8440F2E403C2F200034FF058
:101A200000021A6040F20403C2F200031B68184669
:101A300002F0D4F902460B461046194646A3D3E9F4
:101A4000002302F031FA02460B461046194602F016
:101A5000C5FC024640F28403C2F200031A6040F261
:101A6000DC03C2F200031B68012B2AD14FF4305370
:101A7000C4F201034FF000029A8440F2E403C2F280
:101A800000034FF000021A6040F20403C2F20003A8
:101A90005B6B184602F0A2F902460B461046194647
:101AA0002DA3D3E9002302F0FFF902460B461046AE
:101AB000194602F093FC024640F28403C2F200038E
:101AC0001A6040F2DC03C2F200034FF000021A6019
:101AD00040F2B803C2F200031A6840F2D003C2F227
:101AE00000031B6892FBF3F240F2B803C2F200035A
:101AF0001A6040F2D003C2F200031B68002B25D10C
:101B000040F20403C2F20003DA6840F28403C2F236
:101B100000031B689A4206DD40F2DC03C2F20003B8
:101B20004FF0FF321A6040F20403C2F200031A6A57
:101B300040F28403C2F200031B689A4206DA40F2C4
:101B4000DC03C2F200034FF001021A6007F108073C
:101B5000BD4680BDAFF30080333333333333F33FBF
:101B6000B0B500AF40F23C03C2F200031A6840F285
:101B7000B803C2F200031B6803FB02F3184602F02D
:101B80002DF904460D4640F24003C2F200031B68E3
:101B9000184602F023F940F2C803C2F20003D3E969
:101BA000002302F081F902460B462046294601F047
:101BB000C9FF02460B46104619464FF000024FF08F
:101BC000804303F5B20302F099FA02460B46104631
:101BD000194602F003FC024640F2D403C2F20003AD
:101BE0001A60B0BD0000000080B582B000AF40F2C6
:101BF000DC03C2F200031B68002B40F0EF8140F2CF
:101C0000D403C2F200031B68002B40F3DC8040F2D7
:101C1000D403C2F200031B68642B23DD40F2D4031B
:101C2000C2F200031B68184602F0D8F802460B46C1
:101C300010461946B4A3D3E9002302F035F9024651
:101C40000B461046194602F0C9FB03464FF0FF3021
:101C5000194601F09DFA4FF001004FF0640101F0C8
:101C60005FFBBBE140F2D403C2F200031B68502BC0
:101C700023DD40F2D403C2F200031B68184602F0D1
:101C8000ADF802460B4610461946A1A3D3E900233E
:101C900002F00AF902460B461046194602F09EFB76
:101CA00003464FF0FF30194601F072FA4FF0010081
:101CB0004FF0640101F034FB90E140F2D403C2F232
:101CC00000031B683C2B23DD40F2D403C2F2000367
:101CD0001B68184602F082F802460B461046194669
:101CE0008DA3D3E9002302F0DFF802460B4610462D
:101CF000194602F073FB03464FF0FF30194601F01E
:101D000047FA4FF001004FF0640101F009FB65E173
:101D100040F2D403C2F200031B68282B26DD40F2F8
:101D2000D403C2F200031B68184602F057F80246BB
:101D30000B46104619464FF000024FF0804303F562
:101D4000802302F0B1F802460B461046194602F015
:101D500045FB03464FF00000194601F019FA4FF019
:101D600001004FF0640101F0DBFA37E140F2D403E7
:101D7000C2F200031B68142B12DD40F2D403C2F23E
:101D800000031B68C3F123034FF00100194601F063
:101D9000FFF94FF001004FF0640101F0C1FA1DE1BD
:101DA00040F2D403C2F200031B68C3F164034FF096
:101DB0000100194601F0ECF94FF001004FF0640109
:101DC00001F0AEFA0AE140F2D403C2F200031B684C
:101DD000002B0CD14FF001004FF0640101F0D8F955
:101DE0004FF001004FF0640101F09AFAF6E040F282
:101DF000D403C2F200031B6813F1640F25DA4FF01D
:101E000001004FF0640101F0C3F940F2D403C2F2C3
:101E100000031B68C3F10003184601F0DFFF024610
:101E20000B461046194638A3D3E9002302F03CF8CC
:101E300002460B461046194602F0D0FA03464FF010
:101E4000FF30194601F06CFAC8E040F2D403C2F248
:101E500000031B6813F1500F25DA4FF001004FF01B
:101E6000640101F095F940F2D403C2F200031B684B
:101E7000C3F10003184601F0B1FF02460B461046BD
:101E8000194623A3D3E9002302F00EF802460B46BD
:101E90001046194602F0A2FA03464FF0FF301946E9
:101EA00001F03EFA9AE040F2D403C2F200031B684C
:101EB00013F13C0F34DA4FF001004FF0640101F0F0
:101EC00067F940F2D403C2F200031B68C3F10003B8
:101ED000184601F083FF02460B46104619460EA332
:101EE000D3E9002301F0E0FF02460B4610461946F5
:101EF00002F074FA03464FF0FF30194601F010FA71
:101F00006CE000BFAFF300809A9999999999E93FE5
:101F1000666666666666E63FCDCCCCCCCCCCDC3F54
:101F200040F2D403C2F200031B6813F1280F28DA31
:101F30004FF001004FF0640101F02AF940F2D403A0
:101F4000C2F200031B68C3F10003184601F046FF0C
:101F500002460B46104619464FF000024FF08043F0
:101F600003F5802301F0A0FF02460B4610461946F8
:101F700002F034FA03464FF00000194601F0D0F9A0
:101F80002CE040F2D403C2F200031B6813F1140FDB
:101F900012DA4FF001004FF0640101F0F9F840F25D
:101FA000D403C2F200031B6803F123034FF00100C6
:101FB000194601F0B5F911E04FF001004FF064014E
:101FC00001F0E6F840F2D403C2F200031B6803F10B
:101FD00064034FF00100194601F0A2F940F2E40356
:101FE000C2F200031A6840F25803C2F200031B68F1
:101FF00003FB02F24FF43053C4F201039B8C99B2FD
:1020000044F6D353C1F26203A3FB01034FEA9313D7
:102010009BB2D318184601F0E1FE02460B46C7E911
:10202000002340F2DC03C2F200031B68B3F1FF3F60
:1020300037D140F24403C2F200031B68184601F096
:10204000CDFE02460B4610461946D7E9002301F0A3
:102050002BFF02460B46104619464FF000024FF088
:10206000804303F5B20302F049F802460B464FF0F5
:1020700000004FF0804101F5B20101F061FD024620
:102080000B461046194602F0A9F903464FF0FF30FF
:10209000194601F045F94FF001004FF0640101F0DD
:1020A00077F840F2DC03C2F200031B68012B37D142
:1020B0004FF001004FF0640101F032F940F24403A7
:1020C000C2F200031B68184601F088FE02460B4668
:1020D00010461946D7E9002301F0E6FE02460B46FA
:1020E000104619464FF000024FF0804303F5B2034B
:1020F00002F004F802460B464FF000004FF080411A
:1021000001F5B20101F01CFD02460B4610461946CE
:1021100002F064F903464FF0FF30194601F038F839
:1021200007F10807BD4680BD80B487B000AF4FF00F
:1021300000037B614FF000033B614FF00003FB6045
:102140004FF00003BB604FF01E037B604FF00003B5
:10215000FB6022E040F29003C2F200031B889BB2B6
:102160007A69D3187B6140F29003C2F200035B8B63
:102170009BB23A69D3183B614FF00003BB6003E0A8
:10218000BB6803F10103BB60BA6840F2E7339A42CF
:10219000F6DDFB6803F10103FB60FA687B689A4295
:1021A000D8DB7A697B6892FBF3F37B613A697B68E1
:1021B00092FBF3F33B617A693B69D21845F25653BF
:1021C000C5F2555383FB02014FEAE273CA1A40F28B
:1021D0005403C2F200031A6007F11C07BD4680BC1D
:1021E000704700BF80B483B000AF4FF49043C4F297
:1021F00000039B889BB2FB7140F20013C2F2000304
:102200001B78DBB21A4640F2C853C2F20003F979D8
:10221000995440F20013C2F200031B78DBB21A4655
:1022200040F2C853C2F200039B5C772B0DD040F202
:102230000013C2F200031B78DBB21A4640F2C85307
:10224000C2F200039B5C732B1BD140F20013C2F25D
:1022500000031B78DBB203F10103DAB240F2001392
:10226000C2F200031A7040F20013C2F200031B789E
:10227000DBB21A4640F2C853C2F200034FF023010A
:10228000995440F20013C2F200031B78DBB21A46E5
:1022900040F2C853C2F200039B5C232B06D140F2EC
:1022A0000413C2F200034FF001021A6040F200135F
:1022B000C2F200031B78DBB203F10103DAB240F291
:1022C0000013C2F200031A704FF49043C4F20003EB
:1022D0004FF49042C4F20002128892B222F020021F
:1022E00092B21A8007F10C07BD4680BC704700BF50
:1022F00080B400AF40F2B003C2F200031B68002BB1
:1023000012D04FF48053C4F201034FF480521A618B
:1023100040F2B003C2F200031B6803F1010240F275
:10232000B003C2F200031A6040F2B003C2F200032D
:102330001A6840F20003C2F200031B689A420DDBE8
:102340004FF48053C4F201034FF480525A6140F2BB
:10235000B003C2F200034FF000021A60BD4680BC19
:10236000704700BF0000000098B500AF40F2900336
:10237000C2F200039B8B9BB2184601F02FFD024670
:102380000B464FF001010C46104619460EA3D3E947
:10239000002301F0FBFF0346002B02D14FF00003A6
:1023A0001C46E3B2002B07D04FF48053C4F2010364
:1023B0004FF400621A6106E04FF48053C4F2010347
:1023C0004FF400625A6198BD9A99999999D7A240A1
:1023D00080B485B000AF78604FF00003FB604FF42D
:1023E0008063C4F20103FB607B689B79002B7ED085
:1023F0004FF48063C4F201034FF48062C4F201021F
:10240000126811467A6812686FEA02020A401A607E
:102410004FF48063C4F201034FF48062C4F20102FE
:10242000526811467A6812686FEA02020A405A60DE
:102430007B681B79FA68D318FB60FB68FA6811683F
:102440007A6812680A431A604FF48063C4F2010389
:102450004FF48062C4F20102926811467A681268F1
:102460006FEA02020A409A604FF48063C4F20103EB
:102470004FF48062C4F20102D26811467A68126891
:102480006FEA02020A40DA607B685B79102B1CD18C
:102490004FF48063C4F201034FF48062C4F201027E
:1024A000926811467A6812680A439A604FF4806312
:1024B000C4F201034FF48062C4F20102D2681146F3
:1024C0007A6812680A43DA601FE04FF48063C4F24E
:1024D0000103FB607B685B79FA68D318FB60FB68DB
:1024E000FA6811687A6812680A431A600DE07B681E
:1024F0001B79FA68D318FB60FB68FA6811687A6880
:1025000012686FEA02020A401A6007F11407BD461A
:1025100080BC704780B483B000AF78604FF48063B4
:10252000C4F201037A685A6107F10C07BD4680BC0A
:10253000704700BF80B485B000AF786039604FF05D
:102540000003FB604FF00003FB727B685B68FB607D
:10255000FB6823F4702323F48073FB603B681A68E4
:102560003B681B794FEA03231343FA681343FB606C
:102570007B68FA685A607B689B68FB60FA684FF278
:10258000FD73CFF6F1731340FB603B68DA683B687C
:102590009B681A433B685B794FEA43031343FA682D
:1025A0001343FB607B68FA689A607B68DB6AFB60B8
:1025B000FB6823F47003FB603B681B7C03F1FF3373
:1025C000DAB2FB7A1343FB72FB7A4FEA0353FA68E1
:1025D0001343FB607B68FA68DA6207F11407BD46B3
:1025E00080BC704780B483B000AF78600B46FB704E
:1025F000FB78002B06D07B689B6843F001027B6868
:102600009A6005E07B689B6823F001027B689A6012
:1026100007F10C07BD4680BC704700BF80B483B093
:1026200000AF78600B46FB70FB78002B06D07B6810
:102630009B6843F480727B689A6005E07B689B68C6
:1026400023F480727B689A6007F10C07BD4680BC5A
:10265000704700BF80B483B000AF78607B689B6830
:1026600043F008027B689A6007F10C07BD4680BC06
:10267000704700BF80B485B000AF78604FF00003B2
:10268000FB737B689B6803F00803002B03D04FF0BB
:102690000103FB7302E04FF00003FB73FB7B184662
:1026A00007F11407BD4680BC704700BF80B483B0FB
:1026B00000AF78607B689B6843F004027B689A6097
:1026C00007F10C07BD4680BC704700BF80B485B0E1
:1026D00000AF78604FF00003FB737B689B6803F0EA
:1026E0000403002B03D04FF00103FB7302E04FF013
:1026F0000003FB73FB7B184607F11407BD4680BC43
:10270000704700BF80B483B000AF78600B46FB70A9
:10271000FB78002B06D07B689B6843F4A0027B68A3
:102720009A6005E07B689B6823F4A0027B689A604E
:1027300007F10C07BD4680BC704700BF80B485B070
:1027400000AF7860F970BA707B704FF00003FB60E7
:102750004FF00003BB60FB78092B27D97B68DB684F
:10276000FB60FA7813464FEA43039B18A3F11E035C
:102770004FF0070202FA03F3BB60BB686FEA030382
:10278000FA681340FB607978FA7813464FEA4303FE
:102790009B18A3F11E0301FA03F3BB60FA68BB6840
:1027A0001343FB607B68FA68DA6022E07B681B6990
:1027B000FB60FA7813464FEA43039B184FF0070279
:1027C00002FA03F3BB60BB686FEA0303FA681340C5
:1027D000FB607978FA7813464FEA43039B1801FAB5
:1027E00003F3BB60FA68BB681343FB607B68FA685D
:1027F0001A61BB78062B27D87B685B6BFB60BB78C4
:1028000003F1FF3213464FEA83039B184FF01F0278
:1028100002FA03F3BB60BB686FEA0303FA68134074
:10282000FB60F978BB7803F1FF3213464FEA83036C
:102830009B1801FA03F3BB60FA68BB681343FB60A3
:102840007B68FA685A6351E0BB780C2B27D87B6809
:102850001B6BFB60BA7813464FEA83039B18A3F106
:1028600023034FF01F0202FA03F3BB60BB686FEA59
:102870000303FA681340FB60F978BA7813464FEA0D
:1028800083039B18A3F1230301FA03F3BB60FA68E7
:10289000BB681343FB607B68FA681A6326E07B68B9
:1028A000DB6AFB60BA7813464FEA83039B18A3F1F7
:1028B00041034FF01F0202FA03F3BB60BB686FEAEB
:1028C0000303FA681340FB60F978BA7813464FEABD
:1028D00083039B18A3F1410301FA03F3BB60FA6879
:1028E000BB681343FB607B68FA68DA6207F1140780
:1028F000BD4680BC704700BF80B592B000AF4FF4BA
:1029000000704FF00101FEF793FF4FF001004FF010
:102910000101FEF761FF4FF00F033B614FF0000331
:10292000FB604FF00003FB6240F29003C2F2000331
:10293000BB604FF480633B624FF08003BB614FF09C
:1029400020037B6242F24C43C4F201037B604FF4EC
:102950008073FB614FF000037B614FF00003BB62AB
:1029600007F104034FF00800C4F20200194600F01A
:1029700053FF4FF00800C4F202004FF0010100F0D5
:102980008BFF4FF004004FF00101FEF751FF4FF0B5
:10299000FE03A7F844304FF0000387F847304FF0AC
:1029A000030387F8463007F144034FF40060C4F294
:1029B00001001946FEF71AFB4FF008004FF0010125
:1029C000FEF736FF4FF00303A7F844304FF0000343
:1029D00087F847304FF0030387F8463007F1440388
:1029E0004FF44060C4F201001946FEF7FFFA4FF0C1
:1029F00010004FF00101FEF71BFF4FF03F03A7F857
:102A000044304FF0000387F847304FF0030387F856
:102A1000463007F144034FF48050C4F201001946D8
:102A2000FEF7E4FA4FF40040FEF7B6FE4FF0010364
:102A300087F835304FF00003FB634FF46023BB632E
:102A40004FF000033B634FF00F0387F840304FF027
:102A5000010387F8343007F130034FF41050C4F20B
:102A600001001946FFF766FD4FF41050C4F2010053
:102A70004FF001014FF00C024FF00103FFF75EFE33
:102A80004FF41050C4F201004FF002014FF00D025C
:102A90004FF00103FFF752FE4FF41050C4F2010053
:102AA0004FF003014FF00E024FF00103FFF746FE17
:102AB0004FF41050C4F201004FF004014FF0010236
:102AC0004FF00103FFF73AFE4FF41050C4F201003B
:102AD0004FF005014FF002024FF00103FFF72EFE09
:102AE0004FF41050C4F201004FF006014FF0030202
:102AF0004FF00103FFF722FE4FF41050C4F2010023
:102B00004FF007014FF004024FF00103FFF716FEEC
:102B10004FF41050C4F201004FF008014FF00702CB
:102B20004FF00103FFF70AFE4FF41050C4F201000A
:102B30004FF009014FF00F024FF00103FFF7FEFDC8
:102B40004FF41050C4F201004FF00A014FF0080298
:102B50004FF00103FFF7F2FD4FF41050C4F20100F3
:102B60004FF00B014FF009024FF00103FFF7E6FDB4
:102B70004FF41050C4F201004FF00C014FF00A0264
:102B80004FF00103FFF7DAFD4FF41050C4F20100DB
:102B90004FF00D014FF00B024FF00103FFF7CEFD98
:102BA0004FF41050C4F201004FF00E014FF0050237
:102BB0004FF00103FFF7C2FD4FF41050C4F20100C3
:102BC0004FF00F014FF006024FF00103FFF7B6FD83
:102BD0004FF41050C4F201004FF00101FFF702FD65
:102BE0004FF41050C4F201004FF00101FFF716FD41
:102BF0004FF41050C4F20100FFF72CFD00BF4FF45A
:102C00001050C4F20100FFF735FD0346002BF6D14A
:102C10004FF41050C4F20100FFF748FD00BF4FF41D
:102C20001050C4F20100FFF751FD0346002BF6D10E
:102C30004FF41050C4F201004FF00101FFF762FDA4
:102C400007F14807BD4680BD80B5C6B000AF07F1AB
:102C5000040318603B4619604FF00003C7F81031B9
:102C600007F10C031A464FF4807310464FF0000131
:102C70001A4601F0DBFB00F06BF93B461B6803F1E1
:102C80000203C7F8103107F104031B6803F5FE6364
:102C900003F10A03C7F814314BE0D7F814311B884D
:102CA000A7F80E31B7F80E31FF2B3CD8B7F80E312C
:102CB00007F10C02D35C002B35D1B7F80E31D7F8F1
:102CC0001001194600F0B6F9D7F8143103F10203E8
:102CD0001B88A7F80C31D7F8103103F10202B7F8BE
:102CE0000C311046194600F0A5F9D7F8143103F15C
:102CF00004031B88A7F80C31D7F8103103F1040244
:102D0000B7F80C311046194600F094F9D7F8103195
:102D100003F10603C7F81031B7F80E3107F10C02C2
:102D20004FF00101D154D7F81431A3F10603C7F8CD
:102D3000143107F104031B6803F10202D7F81431C0
:102D40009A42AAD907F10403186800F02BF93B4610
:102D500018684AF6AA2100F06DF900F011F907F59C
:102D60008C77BD4680BD00BF80B584B000AF034600
:102D7000FB714FF47043C0F607031B88FB814FF2D1
:102D8000FA73C0F607031B88BB81FA894AF6AA23A7
:102D90009A4220D1FB79002B04D14FF47043C0F646
:102DA000070362E0BA894FF6FF739A4204D14FF4E9
:102DB0007043C0F6070358E04FF47040C0F60700B8
:102DC0004FF47841C0F60701FFF73EFF4FF4784318
:102DD000C0F6070349E04FF47843C0F607031B88A9
:102DE000FB814FF6FA73C0F607031B88BB81FA8993
:102DF0004AF6AA239A4220D1FB79002B04D14FF442
:102E00007843C0F6070330E0BA894FF6FF739A4261
:102E100004D14FF47843C0F6070326E04FF478401E
:102E2000C0F607004FF47041C0F60701FFF70CFF32
:102E30004FF47043C0F6070317E0FA894FF6FF73AB
:102E40009A4210D100F084F84FF47840C0F60700A1
:102E50004AF6AA2100F0EEF800F092F84FF4784319
:102E6000C0F6070301E04FF00003184607F1100712
:102E7000BD4680BD80B586B000AF786039604FF048
:102E80000000FFF771FF03463B613B69002B01D156
:102E90003B6820E03B6903F5FE6303F10A037B61B5
:102EA00012E07B691B889BB2FB607A68FB689A42E0
:102EB00006D17B6903F102031B68BB60BB680AE0B3
:102EC0007B69A3F106037B613B6903F102027B6925
:102ED0009A42E6D93B68184607F11807BD4680BDFF
:102EE00080B582B000AF00F033F84FF47043C0F605
:102EF00007031B88FB80FA884AF6AA239A420AD065
:102F0000FA884FF6FF739A4205D04FF47040C0F62E
:102F1000070000F047F84FF47843C0F607031B881A
:102F2000FB80FA884AF6AA239A420AD0FA884FF61A
:102F3000FF739A4205D04FF47840C0F6070000F0C6
:102F400031F800F01DF807F10807BD4680BD00BF4D
:102F500080B400AF4FF40053C4F2020340F22312D6
:102F6000C4F267525A604FF40053C4F2020348F6A9
:102F7000AB12CCF6EF525A60BD4680BC704700BF22
:102F800080B400AF4FF40053C4F202034FF4005278
:102F9000C4F20202126942F080021A61BD4680BC8E
:102FA000704700BF80B584B000AF78604FF0040375
:102FB000FB734FF4302000F0B1F80346FB73FB7B4A
:102FC000042B31D14FF40053C4F202034FF40052EA
:102FD000C4F20202126942F002021A614FF4005375
:102FE000C4F202037A685A614FF40053C4F2020338
:102FF0004FF40052C4F20202126942F040021A6118
:103000004FF4302000F08AF80346FB734FF400536E
:10301000C4F202034FF40052C4F2020212691146D4
:1030200041F6FD720A401A61FB7B184607F1100752
:10303000BD4680BD80B584B000AF78600B467B8014
:103040004FF00403FB734FF4005000F067F80346A1
:10305000FB73FB7B042B22D14FF40053C4F2020319
:103060004FF40052C4F20202126942F001021A61E6
:103070007B687A881A804FF4005000F04FF80346BE
:10308000FB734FF40053C4F202034FF40052C4F236
:1030900002021269114641F6FE720A401A61FB7B78
:1030A000184607F11007BD4680BD00BF80B483B04D
:1030B00000AF4FF00403FB714FF40053C4F202035E
:1030C000DB6803F00103DBB2002B03D04FF00103F8
:1030D000FB711CE04FF40053C4F20203DB6803F001
:1030E0000403002B03D04FF00203FB710FE04FF4F9
:1030F0000053C4F20203DB6803F01003002B03D07B
:103100004FF00303FB7102E04FF00403FB71FB7906
:10311000184607F10C07BD4680BC704780B584B0E7
:1031200000AF78604FF00403FB73FFF7BFFF034667
:10313000FB7307E0FFF7BAFF0346FB737B6803F1FD
:10314000FF337B60FB7B012B02D17B68002BF1D12D
:103150007B68002B02D14FF00503FB73FB7B184605
:1031600007F11007BD4680BD80B483B000AF4FF0BB
:1031700000037B6003E07B6803F101037B607B68F5
:10318000092BF8DD07F10C07BD4680BC704700BF76
:1031900090B585B000AF786039603B684FF4FA7243
:1031A00002FB03F248F21F53C5F2EB1383FB021339
:1031B0004FEA63114FEAE273CB1A3B603A6840F280
:1031C000F3139A4202DD4FF4FA733B603B68002B25
:1031D00004DC4FF6D463CFF6FF733B6040F2480344
:1031E000C2F20003D3E90023104619464FF0000253
:1031F0004FF0804303F5B20300F080FF02460B4618
:10320000C7E902237B68012B3CD14FF001031C4628
:10321000D7E902014FF000024FF0000301F0CAF8B5
:103220000346002B02D14FF000031C46E3B2002BF3
:1032300028D04FF001031C46D7E902014FF00002ED
:103240004FF07E5303F5E00301F0AAF80346002B8C
:1032500002D14FF000031C46E3B2002B12D03868B5
:1032600000F0BCFD02460B4610461946D7E9022382
:1032700000F01AFE02460B461046194601F0AEF861
:1032800003463B607B68012B16D14FF080434FF41F
:10329000FF72A3F840204FF40063C4F201034FF41F
:1032A00000725A61FFF760FF4FF080433A6892B2B4
:1032B000C2F5FA7292B29A877B68B3F1FF3F16D1DA
:1032C0004FF080434FF4FF729A874FF44063C4F28B
:1032D00001034FF480425A61FFF746FF4FF08043ED
:1032E0003A6892B2C2F5FA7292B2A3F840207B68B3
:1032F000002B10D14FF080433A6892B2C2F5FA72B7
:1033000092B29A874FF080433A6892B2C2F5FA724D
:1033100092B2A3F8402007F11407BD4690BD00BF4C
:1033200090B585B000AF786039603B684FF4FA72B1
:1033300002FB03F248F21F53C5F2EB1383FB0213A7
:103340004FEA63114FEAE273CB1A3B603A6840F2EE
:10335000F3139A4202DD4FF4FA733B603B68002B93
:1033600004DC4FF6D463CFF6FF733B6040F24803B2
:10337000C2F20003D3E90023104619464FF00002C1
:103380004FF0804303F5B20300F0B8FE02460B464F
:10339000C7E902237B68012B3CD14FF001031C4697
:1033A000D7E902014FF000024FF0000301F002F8EC
:1033B0000346002B02D14FF000031C46E3B2002B62
:1033C00028D04FF001031C46D7E902014FF000025C
:1033D0004FF07E5303F5E00300F0E2FF0346002BBD
:1033E00002D14FF000031C46E3B2002B12D0386824
:1033F00000F0F4FC02460B4610461946D7E90223BA
:1034000000F052FD02460B461046194600F0E6FF5A
:1034100003463B607B68012B15D14FF080434FF48E
:10342000FF721A874FF40063C4F201034FF4806205
:103430005A61FFF799FE4FF080433A6892B2C2F5A5
:10344000FA7292B29A867B68B3F1FF3F15D14FF0C2
:1034500080434FF4FF729A864FF44063C4F2010335
:103460004FF400525A61FFF77FFE4FF080433A68F5
:1034700092B2C2F5FA7292B21A877B68002B0FD112
:103480004FF080433A6892B2C2F5FA7292B29A86CD
:103490004FF080433A6892B2C2F5FA7292B21A873C
:1034A00007F11407BD4690BD80B58AB000AF4FF05C
:1034B00001004FF00101FEF7E7F907F10803184694
:1034C000FDF7EEF84FF4FA73BB814FF047033B81F1
:1034D0004FF00003FB814FF000037B8107F10803ED
:1034E0004FF080401946FCF725FE07F114031846FB
:1034F000FDF7F4F84FF00003BB824FF00003FB82AE
:103500004FF4FF737B834FF00003BB8307F1140379
:103510004FF080401946FCF79BFE07F114034FF073
:1035200080401946FCF728FF07F114034FF0804054
:103530001946FCF7B5FF07F114034FF08040194618
:10354000FDF73EF84FF080404FF00101FDF75CF9C8
:103550004FF080404FF00101FDF796F94FF08040A9
:103560004FF00201FDF790F94FF080404FF0040159
:10357000FDF78AF94FF080404FF00801FDF784F91C
:103580004FF080404FF01001FDF77EF94FF0804082
:103590004FF001014FF00102FDF712F94FF08040AA
:1035A0004FF002014FF00102FDF70AF94FF08040A1
:1035B0004FF004014FF00102FDF702F94FF0804097
:1035C0004FF008014FF00102FDF7FAF84FF080408C
:1035D0004FF010014FF00102FDF7F2F84FF0804379
:1035E0004FF000029A844FF080404FF00101FDF748
:1035F0009FF84FF4407000F06DF94FF01C033B71E1
:103600004FF001037B714FF00003BB714FF00103DA
:10361000FB7107F10403184600F070F94FF0080041
:103620004FF00101FEF704F94FF4C043BB844FF0A3
:10363000100387F827304FF0020387F8263007F190
:1036400024034FF44060C4F201001946FDF7CEFC9C
:103650004FF44063C4F201034FF4C0425A614FF08B
:1036600004004FF00101FEF7E3F84FF4C063BB84A0
:103670004FF0100387F827304FF0020387F8263009
:1036800007F124034FF40060C4F201001946FDF76E
:10369000ADFC4FF40063C4F201034FF4C0625A6101
:1036A00007F12807BD4680BD80B400AF4FF08043CE
:1036B0001B8A9BB203F00103DBB2002B13D04FF047
:1036C00080434FF6FE721A824FF40063C4F2010386
:1036D0004FF4C0625A614FF44063C4F201034FF4E7
:1036E000C0425A6194E04FF080431B8A9BB203F0C2
:1036F0000203002B1CD04FF080434FF6FD721A825C
:103700004FF080439B8E9AB240F2F3139A4207D84F
:103710004FF44063C4F201034FF400521A6177E0A2
:103720004FF44063C4F201034FF400525A616FE05A
:103730004FF080431B8A9BB203F00403002B1CD084
:103740004FF080434FF6FB721A824FF080431B8F7D
:103750009AB240F2F3139A4207D84FF40063C4F2CE
:1037600001034FF480621A6152E04FF40063C4F227
:1037700001034FF480625A614AE04FF080431B8A94
:103780009BB203F00803002B1CD04FF080434FF690
:10379000F7721A824FF080439B8F9AB240F2F31374
:1037A0009A4207D84FF44063C4F201034FF48042B9
:1037B0001A612DE04FF44063C4F201034FF48042DC
:1037C0005A6125E04FF080431B8A9BB203F010033F
:1037D000002B1DD04FF080434FF6EF721A824FF04E
:1037E0008043B3F840309AB240F2F3139A4207D8BC
:1037F0004FF40063C4F201034FF400721A6106E053
:103800004FF40063C4F201034FF400725A6100BF29
:10381000BD4680BC704700BF80B485B000AF786003
:1038200039604FF00003FB607B681B68FB60FB683E
:1038300023F4FE4323F0F003FB603B689A683B6887
:103840001B6A1A433B681B691A433B685B691A434E
:103850003B689B691A433B68DB691A433B685B6AB8
:103860001A433B689B6A1343FA681343FB607B6807
:10387000FA681A603B68DA687B685A603B681A68C5
:103880007B689A603B685A687B68DA6007F11407C6
:10389000BD4680BC704700BF80B483B000AF786085
:1038A0000B46FB70FB78002B06D07B681B6843F04F
:1038B00001027B681A6007E07B681B681A464FF6B6
:1038C000FE7313407A68136007F10C07BD4680BC95
:1038D000704700BF80B483B000AF78604FF46D4391
:1038E000CEF200037A6842F0BE6242F42022DA602F
:1038F00007F10C07BD4680BC704700BF80B487B09D
:1039000000AF78604FF000037B614FF000033B6134
:103910004FF00F03FB607B68DB78002B47D04FF440
:103920006D43CEF20003DB686FEA030303F4E06348
:103930004FEA13237B617B69C3F104033B617B691D
:10394000FA6822FA03F3FB607B685B781A463B69EE
:1039500002FA03F37B617B689B781A46FB6813408D
:103960007A6913437B617B694FEA03137B614FF4F0
:103970006143CEF200037A68127811467A69D2B2B6
:103980005B1883F800234FF46143CEF200037A689A
:1039900012784FEA5212D2B27968097801F01F0109
:1039A0004FF0010000FA01F143F8221014E04FF447
:1039B0006143CEF200037A6812784FEA5212D2B213
:1039C0007968097801F01F014FF0010000FA01F158
:1039D00002F1200243F8221007F11C07BD4680BC0B
:1039E000704700BF80B584B000AF4FF400604FF067
:1039F0000101FDF71DFF07F104031846FCF750FE17
:103A00004FF04703BB8040F25803C2F200031B682B
:103A10009BB21A464FEA4212D21A4FEA8202D318D8
:103A20004FEAC3039BB23B814FF000037B814FF011
:103A30000003FB8007F104034FF43050C4F201008F
:103A40001946FCF777FB4FF43050C4F201004FF0F9
:103A50000101FCF7D9FE4FF43050C4F201004FF0E1
:103A60000101FCF711FF4FF43050C4F201004FF098
:103A700001014FF00102FCF7A3FE4FF43053C4F2F2
:103A800001034FF000029A844FF43050C4F2010059
:103A90004FF00101FCF74CFE4FF44070FFF71AFFA6
:103AA0004FF019033B704FF001037B704FF00003A0
:103AB000BB704FF00103FB703B461846FFF71EFF3B
:103AC00007F11007BD4680BD80B400AF4FF43053FE
:103AD000C4F201034FF6FE721A8240F2E403C2F20E
:103AE00000031B6803F1010240F2E403C2F2000389
:103AF0001A60BD4680BC704780B582B000AF4FF001
:103B000010004FF00101FDF793FE4FF00303BB716E
:103B10004FF01003FB714FF4C053BB8007F1040357
:103B20004FF48050C4F201001946FDF75FFA07F127
:103B30000807BD4680BD00BF81F0004102E000BF24
:103B400083F0004330B54FEA41044FEA430594EA5D
:103B5000050F08BF90EA020F1FBF54EA000C55EA98
:103B6000020C7FEA645C7FEA655C00F0E2804FEA69
:103B70005454D4EB5555B8BF6D420CDD2C4480EA4B
:103B8000020281EA030382EA000083EA010180EA7B
:103B9000020281EA0303362D88BF30BD11F0004FC9
:103BA0004FEA01314FF4801C4CEA113102D04042FF
:103BB00061EB410113F0004F4FEA03334CEA13333A
:103BC00002D0524263EB430394EA050F00F0A78052
:103BD000A4F10104D5F1200E0DDB02FA0EFC22FA4D
:103BE00005F2801841F1000103FA0EF2801843FA41
:103BF00005F359410EE0A5F120050EF1200E012A32
:103C000003FA0EFC28BF4CF0020C43FA05F3C0186F
:103C100051EBE37101F0004507D54FF0000EDCF1E8
:103C2000000C7EEB00006EEB0101B1F5801F1BD391
:103C3000B1F5001F0CD349085FEA30004FEA3C0C95
:103C400004F101044FEA445212F5800F80F09A808B
:103C5000BCF1004F08BF5FEA500C50F1000041EB8F
:103C6000045141EA050130BD5FEA4C0C404141EB93
:103C7000010111F4801FA4F10104E9D191F0000FBA
:103C800004BF01460020B1FA81F308BF2033A3F13D
:103C90000B03B3F120020CDA0C3208DD02F1140C34
:103CA000C2F10C0201FA0CF021FA02F10CE002F16F
:103CB0001402D8BFC2F1200C01FA02F120FA0CFC68
:103CC000DCBF41EA0C019040E41AA2BF01EB0451B1
:103CD000294330BD6FEA04041F3C1CDA0C340EDCAF
:103CE00004F11404C4F1200220FA04F001FA02F3F2
:103CF00040EA030021FA04F345EA030130BDC4F1B0
:103D00000C04C4F1200220FA02F001FA04F340EAA4
:103D10000300294630BD21FA04F0294630BD94F055
:103D2000000F83F4801306BF81F480110134013D3C
:103D30004EE77FEA645C18BF7FEA655C29D094EAAD
:103D4000050F08BF90EA020F05D054EA000C04BF2B
:103D50001946104630BD91EA030F1EBF0021002016
:103D600030BD5FEA545C05D14000494128BF41F0B5
:103D7000004130BD14F580043CBF01F5801130BD19
:103D800001F0004545F0FE4141F470014FF00000A4
:103D900030BD7FEA645C1ABF194610467FEA655C55
:103DA0001CBF0B46024650EA013406BF52EA0335F7
:103DB00091EA030F41F4002130BD00BF90F0000FE5
:103DC00004BF0021704730B54FF4806404F1320421
:103DD0004FF000054FF0000150E700BF90F0000FDA
:103DE00004BF0021704730B54FF4806404F1320401
:103DF00010F0004548BF40424FF000013EE700BFD1
:103E000042004FEAE2014FEA31014FEA02701FBF60
:103E100012F07F4393F07F4F81F06051704792F032
:103E2000000F14BF93F07F4F704730B54FF46074AC
:103E300001F0004521F0004120E700BF50EA0102F7
:103E400008BF704730B54FF000050AE050EA0102A4
:103E500008BF704730B511F0004502D5404261EB14
:103E600041014FF4806404F132045FEA915C3FF455
:103E7000DCAE4FF003025FEADC0C18BF03325FEAEE
:103E8000DC0C18BF033202EBDC02C2F1200300FAA3
:103E900003FC20FA02F001FA03FE40EA0E0021FAC8
:103EA00002F11444C1E600BF70B54FF0FF0C4CF4B2
:103EB000E06C1CEA11541DBF1CEA135594EA0C0F68
:103EC00095EA0C0F00F0DEF82C4481EA030621EAA3
:103ED0004C5123EA4C5350EA013518BF52EA0335DE
:103EE00041F4801143F4801338D0A0FB02CE4FF090
:103EF0000005E1FB02E506F00042E0FB03E54FF0C0
:103F00000006E1FB03569CF0000F18BF4EF0010EB7
:103F1000A4F1FF04B6F5007F64F5407404D25FEAB3
:103F20004E0E6D4146EB060642EAC62141EA555166
:103F30004FEAC52040EA5E504FEACE2EB4F1FD0CA8
:103F400088BFBCF5E06F1ED8BEF1004F08BF5FEA26
:103F5000500E50F1000041EB045170BD06F00046D8
:103F600046EA010140EA020081EA0301B4EB5C0485
:103F7000C2BFD4EB0C0541EA045170BD41F480117D
:103F80004FF0000E013C00F3AB8014F1360FDEBFA2
:103F9000002001F0004170BDC4F10004203C35DA7E
:103FA0000C341BDC04F11404C4F1200500FA05F301
:103FB00020FA04F001FA05F240EA020001F00042A2
:103FC00021F0004110EBD37021FA04F642EB060118
:103FD0005EEA430E08BF20EAD37070BDC4F10C0442
:103FE000C4F1200500FA04F320FA05F001FA04F206
:103FF00040EA020001F0004110EBD37041F10001F2
:104000005EEA430E08BF20EAD37070BDC4F12005FC
:1040100000FA05F24EEA020E20FA04F301FA05F264
:1040200043EA020321FA04F001F0004121FA04F20C
:1040300020EA020000EBD3705EEA430E08BF20EADC
:10404000D37070BD94F0000F0FD101F00046400016
:1040500041EB010111F4801F08BF013CF7D041EA98
:10406000060195F0000F18BF704703F0004652009C
:1040700043EB030313F4801F08BF013DF7D043EA6D
:104080000603704794EA0C0F0CEA135518BF95EA23
:104090000C0F0CD050EA410618BF52EA4306D1D1AA
:1040A00081EA030101F000414FF0000070BD50EAC9
:1040B000410606BF1046194652EA430619D094EA53
:1040C0000C0F02D150EA013613D195EA0C0F05D13D
:1040D00052EA03361CBF104619460AD181EA030191
:1040E00001F0004141F0FE4141F470014FF0000049
:1040F00070BD41F0FE4141F4780170BD70B54FF0E4
:10410000FF0C4CF4E06C1CEA11541DBF1CEA135563
:1041100094EA0C0F95EA0C0F00F0A7F8A4EB050445
:1041200081EA030E52EA03354FEA013100F088803C
:104130004FEA03334FF0805545EA131343EA126305
:104140004FEA022245EA111545EA10654FEA0026BA
:104150000EF000419D4208BF964244F1FD0404F573
:10416000407402D25B084FEA3202B61A65EB0305CF
:104170005B084FEA32024FF480104FF4002CB6EB8C
:10418000020E75EB030E22BFB61A754640EA0C000C
:104190005B084FEA3202B6EB020E75EB030E22BF4C
:1041A000B61A754640EA5C005B084FEA3202B6EB8D
:1041B000020E75EB030E22BFB61A754640EA9C004C
:1041C0005B084FEA3202B6EB020E75EB030E22BF1C
:1041D000B61A754640EADC0055EA060E18D04FEADA
:1041E000051545EA16754FEA06164FEAC30343EA7A
:1041F00052734FEAC2025FEA1C1CC0D111F4801F47
:104200000BD141EA00014FF000004FF0004CB6E73F
:1042100011F4801F04BF01430020B4F1FD0C88BFDE
:10422000BCF5E06F3FF6AFAEB5EB030C04BFB6EBE9
:10423000020C5FEA500C50F1000041EB045170BDDC
:104240000EF0004E4EEA113114EB5C04C2BFD4EB09
:104250000C0541EA045170BD41F480114FF0000E8D
:10426000013C90E645EA060E8DE60CEA135594EA09
:104270000C0F08BF95EA0C0F3FF43BAF94EA0C0F0C
:104280000AD150EA01347FF434AF95EA0C0F7FF481
:1042900025AF104619462CE795EA0C0F06D152EAD5
:1042A00003353FF4FDAE1046194622E750EA4106B9
:1042B00018BF52EA43067FF4C5AE50EA41047FF4CA
:1042C0000DAF52EA43057FF4EBAE12E74FF0FF3C2F
:1042D00006E000BF4FF0010C02E000BF4FF0010C00
:1042E0004DF804CD4FEA410C7FEA6C5C4FEA430C79
:1042F00018BF7FEA6C5C1BD001B050EA410C0CBFC8
:1043000052EA430C91EA030F02BF90EA020F002029
:10431000704710F1000F91EA030F58BF994208BF90
:1043200090422CBFD8176FEAE37040F0010070474D
:104330004FEA410C7FEA6C5C02D150EA013C07D1A4
:104340004FEA430C7FEA6C5CD6D152EA033CD3D0EF
:104350005DF8040B704700BF8446104662468C46E9
:104360001946634600E000BF01B5FFF7B7FF00281C
:1043700048BF10F1000F01BD4DF808EDFFF7F4FF45
:104380000CBF012000205DF808FB00BF4DF808EDD0
:10439000FFF7EAFF34BF012000205DF808FB00BFF3
:1043A0004DF808EDFFF7E0FF94BF012000205DF815
:1043B00008FB00BF4DF808EDFFF7CEFF94BF0120CA
:1043C00000205DF808FB00BF4DF808EDFFF7C4FFC3
:1043D00034BF012000205DF808FB00BF4FEA410216
:1043E00012F5001215D211D56FF47873B3EB625247
:1043F00012D94FEAC12343F0004343EA505311F06E
:10440000004F23FA02F018BF404270474FF00000FF
:10441000704750EA013005D111F0004008BF6FF03D
:10442000004070474FF00000704700BF10F0030FCE
:1044300070B403463FD0002A3BD0CDB201E0002A41
:1044400037D003F8015B013A13F0030F1C46F6D195
:10445000032A28D9CDB245EA05250F2A45EA0545A4
:1044600013D923461646103E1D605D609D60DD60D9
:1044700010330F2EF7D8A2F1100323F00F0302F030
:104480000F021033032A1C440DD926461346043B61
:10449000032B46F8045BFAD8131F23F003030433FD
:1044A00002F00302E41822B1C9B2013A04F8011B78
:1044B000FBD170BC70470446CAE700BF2200000071
:0444C00000010000F7
:1044C400B80B000083FFFFFFA1FFFFFFBAFFFFFF50
:1044D400D2FFFFFFE6FFFFFFF2FFFFFFFAFFFFFF40
:1044E400060000000E0000001A0000002E0000006C
:1044F400460000005F0000007D0000005000000046
:10450400E8030000CEFFFFFF00000000000057405A
:10451400D0070000580200000A0000001400000048
:10452400010000000200000003000000040000007D
:104534000500000006000000070000000C00000059
:104544001400000001000000E8030000FF00000068
:10455400AAAAAAAAAAAAAAAAAAAAAAAAAAAAAAAAB7
:10456400AAAAAAAAAAAAAAAAAAAAAAAAAAAA0000FB
:0400000508000000EF
:00000001FF
